{
  "contractName": "EthPriceOracle",
  "abi": [
    {
      "anonymous": false,
      "inputs": [
        {
          "indexed": false,
          "internalType": "address",
          "name": "callerAddress",
          "type": "address"
        },
        {
          "indexed": false,
          "internalType": "uint256",
          "name": "id",
          "type": "uint256"
        }
      ],
      "name": "GetLatestEthPriceEvent",
      "type": "event"
    },
    {
      "anonymous": false,
      "inputs": [
        {
          "indexed": true,
          "internalType": "address",
          "name": "previousOwner",
          "type": "address"
        },
        {
          "indexed": true,
          "internalType": "address",
          "name": "newOwner",
          "type": "address"
        }
      ],
      "name": "OwnershipTransferred",
      "type": "event"
    },
    {
      "anonymous": false,
      "inputs": [
        {
          "indexed": false,
          "internalType": "uint256",
          "name": "ethPrice",
          "type": "uint256"
        },
        {
          "indexed": false,
          "internalType": "address",
          "name": "callerAddress",
          "type": "address"
        }
      ],
      "name": "SetLatestEthPriceEvent",
      "type": "event"
    },
    {
      "inputs": [],
      "name": "owner",
      "outputs": [
        {
          "internalType": "address",
          "name": "",
          "type": "address"
        }
      ],
      "stateMutability": "view",
      "type": "function",
      "constant": true
    },
    {
      "inputs": [],
      "name": "renounceOwnership",
      "outputs": [],
      "stateMutability": "nonpayable",
      "type": "function"
    },
    {
      "inputs": [
        {
          "internalType": "address",
          "name": "newOwner",
          "type": "address"
        }
      ],
      "name": "transferOwnership",
      "outputs": [],
      "stateMutability": "nonpayable",
      "type": "function"
    },
    {
      "inputs": [],
      "name": "getLatestEthPrice",
      "outputs": [
        {
          "internalType": "uint256",
          "name": "",
          "type": "uint256"
        }
      ],
      "stateMutability": "nonpayable",
      "type": "function"
    },
    {
      "inputs": [
        {
          "internalType": "uint256",
          "name": "_ethPrice",
          "type": "uint256"
        },
        {
          "internalType": "address",
          "name": "_callerAddress",
          "type": "address"
        },
        {
          "internalType": "uint256",
          "name": "_id",
          "type": "uint256"
        }
      ],
      "name": "setLatestEthPrice",
      "outputs": [],
      "stateMutability": "nonpayable",
      "type": "function"
    }
  ],
  "bytecode": "0x608060405260006001556103e860025534801561001b57600080fd5b5061003861002d61003d60201b60201c565b61004560201b60201c565b610109565b600033905090565b60008060009054906101000a900473ffffffffffffffffffffffffffffffffffffffff169050816000806101000a81548173ffffffffffffffffffffffffffffffffffffffff021916908373ffffffffffffffffffffffffffffffffffffffff1602179055508173ffffffffffffffffffffffffffffffffffffffff168173ffffffffffffffffffffffffffffffffffffffff167f8be0079c531659141344cd1fd0a4f28419497f9722a3daafe3b4186f6b6457e060405160405180910390a35050565b610b03806101186000396000f3fe608060405234801561001057600080fd5b50600436106100575760003560e01c806330c0b9ec1461005c578063715018a61461007a5780638da5cb5b14610084578063cf642f1f146100a2578063f2fde38b146100be575b600080fd5b6100646100da565b60405161007191906105df565b60405180910390f35b6100826101a1565b005b61008c610229565b604051610099919061063b565b60405180910390f35b6100bc60048036038101906100b791906106b3565b610252565b005b6100d860048036038101906100d39190610706565b610402565b005b6000600160008154809291906100ef90610762565b91905055506000600254423360015460405160200161011093929190610814565b6040516020818303038152906040528051906020012060001c6101339190610880565b905060016003600083815260200190815260200160002060006101000a81548160ff0219169083151502179055507f3d50a0c24e97813f35595d2f1f37dbf421d5e97f37abd4e222853e9b9c82c8d533826040516101929291906108b1565b60405180910390a18091505090565b6101a96104fa565b73ffffffffffffffffffffffffffffffffffffffff166101c7610229565b73ffffffffffffffffffffffffffffffffffffffff161461021d576040517f08c379a000000000000000000000000000000000000000000000000000000000815260040161021490610937565b60405180910390fd5b6102276000610502565b565b60008060009054906101000a900473ffffffffffffffffffffffffffffffffffffffff16905090565b61025a6104fa565b73ffffffffffffffffffffffffffffffffffffffff16610278610229565b73ffffffffffffffffffffffffffffffffffffffff16146102ce576040517f08c379a00000000000000000000000000000000000000000000000000000000081526004016102c590610937565b60405180910390fd5b6003600082815260200190815260200160002060009054906101000a900460ff1661032e576040517f08c379a0000000000000000000000000000000000000000000000000000000008152600401610325906109c9565b60405180910390fd5b6003600082815260200190815260200160002060006101000a81549060ff021916905560008290508073ffffffffffffffffffffffffffffffffffffffff1663b5d73ba485846040518363ffffffff1660e01b81526004016103919291906109e9565b600060405180830381600087803b1580156103ab57600080fd5b505af11580156103bf573d6000803e3d6000fd5b505050507f91b860381268a473101de3379abbb70abf7ea6c9d1735cf58b9816479ff3b72784846040516103f4929190610a12565b60405180910390a150505050565b61040a6104fa565b73ffffffffffffffffffffffffffffffffffffffff16610428610229565b73ffffffffffffffffffffffffffffffffffffffff161461047e576040517f08c379a000000000000000000000000000000000000000000000000000000000815260040161047590610937565b60405180910390fd5b600073ffffffffffffffffffffffffffffffffffffffff168173ffffffffffffffffffffffffffffffffffffffff1614156104ee576040517f08c379a00000000000000000000000000000000000000000000000000000000081526004016104e590610aad565b60405180910390fd5b6104f781610502565b50565b600033905090565b60008060009054906101000a900473ffffffffffffffffffffffffffffffffffffffff169050816000806101000a81548173ffffffffffffffffffffffffffffffffffffffff021916908373ffffffffffffffffffffffffffffffffffffffff1602179055508173ffffffffffffffffffffffffffffffffffffffff168173ffffffffffffffffffffffffffffffffffffffff167f8be0079c531659141344cd1fd0a4f28419497f9722a3daafe3b4186f6b6457e060405160405180910390a35050565b6000819050919050565b6105d9816105c6565b82525050565b60006020820190506105f460008301846105d0565b92915050565b600073ffffffffffffffffffffffffffffffffffffffff82169050919050565b6000610625826105fa565b9050919050565b6106358161061a565b82525050565b6000602082019050610650600083018461062c565b92915050565b600080fd5b610664816105c6565b811461066f57600080fd5b50565b6000813590506106818161065b565b92915050565b6106908161061a565b811461069b57600080fd5b50565b6000813590506106ad81610687565b92915050565b6000806000606084860312156106cc576106cb610656565b5b60006106da86828701610672565b93505060206106eb8682870161069e565b92505060406106fc86828701610672565b9150509250925092565b60006020828403121561071c5761071b610656565b5b600061072a8482850161069e565b91505092915050565b7f4e487b7100000000000000000000000000000000000000000000000000000000600052601160045260246000fd5b600061076d826105c6565b91507fffffffffffffffffffffffffffffffffffffffffffffffffffffffffffffffff8214156107a05761079f610733565b5b600182019050919050565b6000819050919050565b6107c66107c1826105c6565b6107ab565b82525050565b60008160601b9050919050565b60006107e4826107cc565b9050919050565b60006107f6826107d9565b9050919050565b61080e6108098261061a565b6107eb565b82525050565b600061082082866107b5565b60208201915061083082856107fd565b60148201915061084082846107b5565b602082019150819050949350505050565b7f4e487b7100000000000000000000000000000000000000000000000000000000600052601260045260246000fd5b600061088b826105c6565b9150610896836105c6565b9250826108a6576108a5610851565b5b828206905092915050565b60006040820190506108c6600083018561062c565b6108d360208301846105d0565b9392505050565b600082825260208201905092915050565b7f4f776e61626c653a2063616c6c6572206973206e6f7420746865206f776e6572600082015250565b60006109216020836108da565b915061092c826108eb565b602082019050919050565b6000602082019050818103600083015261095081610914565b9050919050565b7f546869732072657175657374206973206e6f7420696e206d792070656e64696e60008201527f67206c6973742e00000000000000000000000000000000000000000000000000602082015250565b60006109b36027836108da565b91506109be82610957565b604082019050919050565b600060208201905081810360008301526109e2816109a6565b9050919050565b60006040820190506109fe60008301856105d0565b610a0b60208301846105d0565b9392505050565b6000604082019050610a2760008301856105d0565b610a34602083018461062c565b9392505050565b7f4f776e61626c653a206e6577206f776e657220697320746865207a65726f206160008201527f6464726573730000000000000000000000000000000000000000000000000000602082015250565b6000610a976026836108da565b9150610aa282610a3b565b604082019050919050565b60006020820190508181036000830152610ac681610a8a565b905091905056fea26469706673582212207021713f07f714c14a67b72fe00c8cfef93e46512b0d886184b741270e17300364736f6c634300080c0033",
  "immutableReferences": {},
  "source": "// SPDX-License-Identifier: MIT\n\npragma solidity ^0.8.0;\nimport \"openzeppelin-solidity/contracts/access/Ownable.sol\";\nimport \"./CallerContractInterface.sol\";\ncontract EthPriceOracle is Ownable {\n  uint private randNonce = 0;\n  uint private modulus = 1000;\n  mapping(uint256=>bool) pendingRequests;\n  event GetLatestEthPriceEvent(address callerAddress, uint id);\n  event SetLatestEthPriceEvent(uint256 ethPrice, address callerAddress);\n  function getLatestEthPrice() public returns (uint256) {\n    randNonce++;\n    uint id = uint(keccak256(abi.encodePacked(block.timestamp, msg.sender, randNonce))) % modulus;\n    pendingRequests[id] = true;\n    emit GetLatestEthPriceEvent(msg.sender, id);\n    return id;\n  }\n  function setLatestEthPrice(uint256 _ethPrice, address _callerAddress, uint256 _id) public onlyOwner {\n    require(pendingRequests[_id], \"This request is not in my pending list.\");\n    delete pendingRequests[_id];\n    CallerContractInterface callerContractInstance;\n    callerContractInstance = CallerContractInterface(_callerAddress);\n    callerContractInstance.callback(_ethPrice, _id);\n    emit SetLatestEthPriceEvent(_ethPrice, _callerAddress);\n  }\n}\n",
  "sourcePath": "/home/mnaga/Downloads/cryptoZombies/EthPriceOracle/oracle/contracts/EthPriceOracle.sol",
  "compiler": {
    "name": "solc",
    "version": "0.8.12+commit.f00d7308.Emscripten.clang"
  },
  "schemaVersion": "3.4.5",
  "updatedAt": "2022-03-01T13:37:22.770Z",
  "networkType": "ethereum",
  "devdoc": {
    "kind": "dev",
    "methods": {
      "owner()": {
        "details": "Returns the address of the current owner."
      },
      "renounceOwnership()": {
        "details": "Leaves the contract without owner. It will not be possible to call `onlyOwner` functions anymore. Can only be called by the current owner. NOTE: Renouncing ownership will leave the contract without an owner, thereby removing any functionality that is only available to the owner."
      },
      "transferOwnership(address)": {
        "details": "Transfers ownership of the contract to a new account (`newOwner`). Can only be called by the current owner."
      }
    },
    "version": 1
  },
  "userdoc": {
    "kind": "user",
    "methods": {},
    "version": 1
  }
}